:100000000C9434000C9426010C9451000C94510073
:100010000C9451000C9451000C9451000C9451001C
:100020000C9451000C9451000C9451000C9451000C
:100030000C9451000C9451000C9451000C945100FC
:100040000C9451000C9451000C9451000C945100EC
:100050000C9451000C9451000C9451000C945100DC
:100060000C9451000C94510011241FBECFEFD8E026
:10007000DEBFCDBF11E0A0E0B1E0E6E9FDE002C0E7
:1000800005900D92A037B107D9F721E0A0E7B1E0C4
:1000900001C01D92A437B207E1F70E9447010C94FA
:1000A000C9060C9400001092C50089E18093C40039
:1000B00088E08093C10086E08093C2000895E0EC60
:1000C000F0E0908195FFFDCF8093C6000895CF9317
:1000D000DF93EC018881882331F021960E945F0034
:1000E00089918111FBCFDF91CF91089580E48093B6
:1000F0007C0083E880937A000895ECE7F0E090813B
:10010000987F8770892B8083EAE7F0E080818064A4
:100110008083808186FDFDCF809178009091790069
:1001200008951092B9008CE08093B800089584EA95
:100130008093BC00ECEBF0E080818823ECF708951D
:100140008093BB0084E88093BC00ECEBF0E08081FE
:100150008823ECF70895EF92FF920F931F93CF93AC
:10016000DF9300D000D0CDB7DEB7982F907F962BCD
:10017000292F2C60298398609A8320E1829FC001F7
:100180001124862B982F9C609B8388608C830E940F
:1001900097008EE40E94A0008E010F5F1F4F7E012A
:1001A00085E0E80EF11CF80181918F010E94A0000A
:1001B0000E151F05C1F784E98093BC000F900F90C6
:1001C0000F900F90DF91CF911F910F91FF90EF90C3
:1001D000089560E00E94AB00089561E00E94AB00CA
:1001E00008958FE493EC0197F1F700C0000082E0DE
:1001F0000E94E90088E20E94E9008CE00E94E90088
:1002000086E00E94E90081E00E94E9008FEC97E01F
:100210000197F1F700C000000895CF93DF93EC0140
:100220008881882331F021960E94ED008991811107
:10023000FBCFDF91CF91089581E00E94E9008FEC20
:1002400097E00197F1F700C0000008951F920F9208
:100250000FB60F9211248F9380917301811104C006
:100260001092720110927101809173018F5F8093DF
:1002700073018F910F900FBE0F901F9018958823D8
:1002800011F05F9A01C05F98809370010895CF9339
:10029000DF93CDB7DEB764970FB6F894DEBF0FBE1D
:1002A000CDBF0E9453000E9476000E9491000E94E0
:1002B000F100789484B1876084B9579A5A9A81E0A2
:1002C000809369008DBB80E80E94E90080E091E0A6
:1002D0000E940D012FEF84E39CE02150804090406C
:1002E000E1F700C000000E941C010F2EF1E1AF2ECB
:1002F000F1E0BF2EF02DCE0101967C0180E00E943E
:100300007D006C01BC0180E090E00E94AF0220E023
:1003100030EC4FE754E40E940E0220E030E048EC5D
:1003200052E40E943D030E948002162F862E912CDB
:100330001F926F93DF92CF92BF92AF92FF92EF9294
:100340000E94CF03C7010E94670080E80E94E90075
:1003500082E291E00E940D014AE0B701C4010E94CF
:10036000AA03C7010E940D0188E291E00E940D01DD
:100370000FB6F894DEBF0FBECDBF153070F4299ACA
:10038000289881E00E943F012A9A80EC0E94E900AF
:100390008DE291E00E940D0128C01B3098F4289A4C
:1003A000299880917001882329F0143118F080E099
:1003B0000E943F0180EC0E94E9008EE391E00E94E0
:1003C0000D0113C085B18C7F85B9809170018823A0
:1003D00029F0143118F080E00E943F0180EC0E9467
:1003E000E9008FE491E00E940D01809173018A3051
:1003F00058F00E941C0180E80E94E90080E691E02C
:100400000E940D01109273019FEF24E38CE0915044
:1004100020408040E1F700C0000070CF0E9422021F
:100420000C9403030E94FC0258F00E94F50240F075
:1004300029F45F3F29F00C94EC0251110C9437031E
:100440000C94F2020E94140368F39923B1F355232C
:1004500091F3951B550BBB27AA27621773078407D7
:1004600038F09F5F5F4F220F331F441FAA1FA9F36D
:1004700035D00E2E3AF0E0E832D091505040E6955B
:10048000001CCAF72BD0FE2F29D0660F771F881FBC
:10049000BB1F261737074807AB07B0E809F0BB0BAF
:1004A000802DBF01FF2793585F4F3AF09E3F5105C3
:1004B00078F00C94EC020C9437035F3FE4F3983E21
:1004C000D4F3869577956795B795F7959F5FC9F7AC
:1004D000880F911D9695879597F90895E1E0660F2D
:1004E000771F881FBB1F621773078407BA0720F0A6
:1004F000621B730B840BBA0BEE1F88F7E09508950F
:100500000E941C0388F09F5798F0B92F9927B75184
:10051000B0F0E1F0660F771F881F991F1AF0BA95A7
:10052000C9F714C0B13091F00E943603B1E00895CC
:100530000C943603672F782F8827B85F39F0B93FBE
:10054000CCF3869577956795B395D9F73EF490955A
:100550008095709561957F4F8F4F9F4F0895E894D8
:1005600009C097FB3EF490958095709561957F4FFB
:100570008F4F9F4F9923A9F0F92F96E9BB279395A9
:10058000F695879577956795B795F111F8CFFAF4B9
:10059000BB0F11F460FF1BC06F5F7F4F8F4F9F4FEA
:1005A00016C0882311F096E911C0772321F09EE848
:1005B000872F762F05C0662371F096E8862F70E0AE
:1005C00060E02AF09A95660F771F881FDAF7880F88
:1005D0009695879597F9089597F99F6780E870E059
:1005E00060E008959FEF80EC089500240A941616A9
:1005F000170618060906089500240A941216130611
:10060000140605060895092E0394000C11F488239E
:1006100052F0BB0F40F4BF2B11F460FF04C06F5FBA
:100620007F4F8F4F9F4F089557FD9058440F551F90
:1006300059F05F3F71F04795880F97FB991F61F064
:100640009F3F79F087950895121613061406551FDB
:10065000F2CF4695F1DF08C0161617061806991F47
:10066000F1CF86957105610508940895E894BB273C
:1006700066277727CB0197F908950E9450030C94C1
:1006800003030E94F50238F00E94FC0220F095233B
:1006900011F00C94EC020C94F20211240C94370328
:1006A0000E94140370F3959FC1F3950F50E0551FFE
:1006B000629FF001729FBB27F00DB11D639FAA27B7
:1006C000F00DB11DAA1F649F6627B00DA11D661F06
:1006D000829F2227B00DA11D621F739FB00DA11D27
:1006E000621F839FA00D611D221F749F3327A00DE1
:1006F000611D231F849F600D211D822F762F6A2F7D
:1007000011249F5750409AF0F1F088234AF0EE0FE1
:10071000FF1FBB1F661F771F881F91505040A9F70E
:100720009E3F510580F00C94EC020C9437035F3F20
:10073000E4F3983ED4F3869577956795B795F7954A
:10074000E7959F5FC1F7FE2B880F911D96958795C2
:1007500097F90895BB274A3031F4992322F4BDE27A
:10076000909581959F4F0C94B603BB27FB015527AD
:10077000AA27880F991FAA1FA41710F0A41B8395FE
:100780005051B9F7A05DAA3308F0A95DA193009775
:1007900079F7B111B1931192CB010C94E805AEE059
:1007A000B0E0E5EDF3E00C94A0060D891E8986E02B
:1007B0008C831A8309838FEF9FE79E838D83AE011D
:1007C000475E5F4F6F89788DCE0101960E94F103DD
:1007D000EF81F885E00FF11F10822E96E4E00C9473
:1007E000BC06ABE0B0E0E7EFF3E00C9492066C01DE
:1007F0007B018A01FC0117821682838181FFCCC1B3
:10080000CE0101963C01F6019381F70193FD85919C
:1008100093FF81917F01882309F4BAC1853239F4AD
:1008200093FD859193FF81917F01853229F4B60173
:1008300090E00E94F805E7CF912C212C312CFFE1AC
:10084000F315D8F08B3279F038F4803279F08332B6
:10085000A1F4232D20611DC08D3261F0803369F435
:10086000232D216016C0832D8260382EE32DE46095
:100870003E2E2AC0F32DF8601DC037FC2DC020EDA0
:10088000280F2A3040F08E32B9F436FC81C1232D76
:100890002064322E19C036FE06C08AE0989E200DD4
:1008A0001124922E11C0EAE02E9E200D1124222E3A
:1008B000F32DF0623F2E08C08C3621F4832D806822
:1008C000382E02C0883641F4F70193FD859193FFDD
:1008D00081917F018111B3CF982F9F7D95549330E3
:1008E00028F40C5F1F4F9FE399830DC0833631F0CE
:1008F000833771F0833509F059C021C0F801808138
:1009000089830E5F1F4F88248394912C530113C059
:100910002801F2E04F0E511CF801A080B18036FE94
:1009200003C0692D70E002C06FEF7FEFC5010E9428
:10093000DD054C018201F32DFF773F2E16C0280103
:1009400022E0420E511CF801A080B18036FE03C0A7
:10095000692D70E002C06FEF7FEFC5010E94D205E4
:100960004C01F32DF0683F2E820133FC1BC0822D19
:1009700090E088169906B0F4B60180E290E00E94FB
:10098000F8052A94F4CFF50137FC859137FE819163
:100990005F01B60190E00E94F80521102A9421E041
:1009A000821A91088114910471F7E8C0843611F01D
:1009B000893641F5F80137FE07C060817181828177
:1009C00093810C5F1F4F08C060817181072E000C5E
:1009D000880B990B0E5F1F4FF32DFF763F2E97FF6D
:1009E00009C090958095709561957F4F8F4F9F4F6F
:1009F000F0683F2E2AE030E0A3010E943406882EE2
:100A0000861845C0853731F4232D2F7EB22E2AE07B
:100A100030E025C0932D997FB92E8F36C1F018F4A0
:100A2000883579F0B5C0803719F0883721F0B0C02B
:100A3000E92FE061BE2EB4FE0DC0FB2DF460BF2E89
:100A400009C034FE0AC0292F2660B22E06C028E055
:100A500030E005C020E130E002C020E132E0F801E2
:100A6000B7FE07C060817181828193810C5F1F4F47
:100A700006C06081718180E090E00E5F1F4FA3018E
:100A80000E943406882E8618FB2DFF773F2E36FEF7
:100A90000DC0232D2E7FA22E891458F434FE0BC0D6
:100AA00032FC09C0832D8E7EA82E05C0B82CA32C45
:100AB00003C0B82C01C0B92CA4FE0FC0FE01E80D84
:100AC000F11D8081803321F49A2D997EA92E09C0D1
:100AD000A2FE06C0B394B39404C08A2D867809F0B0
:100AE000B394A3FC11C0A0FE06C0B21488F4280C75
:100AF000922C9B180EC0B21460F4B60180E290E014
:100B00000E94F805B394F7CFB21418F42B1802C062
:100B1000982C212CA4FE10C0B60180E390E00E9426
:100B2000F805A2FE17C0A1FC03C088E790E002C050
:100B300088E590E0B6010CC08A2D867859F0A1FEB8
:100B400002C08BE201C080E2A7FC8DE2B60190E01A
:100B50000E94F805891438F4B60180E390E00E9401
:100B6000F8059A94F7CF8A94F301E80DF11D80817E
:100B7000B60190E00E94F8058110F5CF222009F41B
:100B800042CEB60180E290E00E94F8052A94F6CFAA
:100B9000F6018681978102C08FEF9FEF2B96E2E1ED
:100BA0000C94AE06FC010590615070400110D8F71E
:100BB000809590958E0F9F1F0895FC0161507040A5
:100BC00001900110D8F7809590958E0F9F1F089582
:100BD000DC01FC01672F71917723E1F7329704C0A4
:100BE0007C916D9370836291AE17BF07C8F308952F
:100BF0000F931F93CF93DF93FB01238121FD03C04C
:100C00008FEF9FEF2CC022FF16C0468157812481B1
:100C100035814217530744F4A081B1819D012F5FB4
:100C20003F4F318320838C93268137812F5F3F4F45
:100C30003783268314C08B01EC01FB010084F1850E
:100C4000E02D0995892BE1F6D80116968D919C919E
:100C50001797019617969C938E931697CE01DF9166
:100C6000CF911F910F910895FA01AA27283051F1D1
:100C7000203181F1E8946F936E7F6E5F7F4F8F4FCD
:100C80009F4FAF4FB1E03ED0B4E03CD0670F781F2C
:100C9000891F9A1FA11D680F791F8A1F911DA11D11
:100CA0006A0F711D811D911DA11D20D009F468944A
:100CB0003F912AE0269F11243019305D3193DEF6F2
:100CC000CF010895462F4770405D4193B3E00FD0A8
:100CD000C9F7F6CF462F4F70405D4A3318F0495D93
:100CE00031FD4052419302D0A9F7EACFB4E0A69576
:100CF0009795879577956795BA95C9F70097610598
:100D0000710508959B01AC010A2E069457954795ED
:100D100037952795BA95C9F7620F731F841F951FE2
:100D2000A01D08952F923F924F925F926F927F92F3
:100D30008F929F92AF92BF92CF92DF92EF92FF92EB
:100D40000F931F93CF93DF93CDB7DEB7CA1BDB0B97
:100D50000FB6F894DEBF0FBECDBF09942A8839883C
:100D600048885F846E847D848C849B84AA84B98443
:100D7000C884DF80EE80FD800C811B81AA81B9814F
:100D8000CE0FD11D0FB6F894DEBF0FBECDBFED0163
:060D90000895F894FFCF66
:100D9600536D61727420506C616E7420496E697473
:100DA60000536F696C3D2575202825752525290D6D
:100DB6000A00536F696C3A002520202000574154E1
:100DC60045522054484520504C414E5420004D6F0A
:100DD600697374757265206973206C6F7720004D96
:100DE6006F697374757265204F4B20202020200098
:100DF60057696E6420617661696C61626C6500009A
:00000001FF
