:100000000C9434000C94FE010C9451000C9451009B
:100010000C9451000C9451000C9451000C9451001C
:100020000C9451000C9451000C9451000C9451000C
:100030000C9451000C9451000C9451000C945100FC
:100040000C9451000C9451000C9451000C945100EC
:100050000C9451000C9451000C9451000C945100DC
:100060000C9451000C94510011241FBECFEFD8E026
:10007000DEBFCDBF12E0A0E0B1E0EEE6FDE002C0E1
:1000800005900D92A630B107D9F722E0A6E0B2E0C4
:1000900001C01D92A830B207E1F70E9417020C942C
:1000A000B5060C9400001092C50089E18093C4004D
:1000B00088E08093C10086E08093C2000895E0EC60
:1000C000F0E0908195FFFDCF8093C6000895CF9317
:1000D000DF93EC018881882331F021960E945F0034
:1000E00089918111FBCFDF91CF91089580E48093B6
:1000F0007C0086E880937A000895ECE7F0E0908138
:10010000987F8770892B808386E08A95F1F700C0FD
:10011000EAE7F0E0808180648083808186FDFDCF06
:10012000809178009091790008951092B9008CE048
:100130008093B800089584EA8093BC00ECEBF0E073
:1001400080818823ECF7089584E98093BC008DE0DA
:100150008A95F1F7000008958093BB0084E88093AE
:10016000BC00ECEBF0E080818823ECF70895EF927F
:10017000FF920F931F93CF93DF9300D000D0CDB7A2
:10018000DEB721E0611101C020E0982F907F922B13
:10019000392F3C60398398609A8330E1839FC00196
:1001A0001124822B982F9C609B8388608C830E94F3
:1001B0009B0080910001880F0E94AC008E010F5FB0
:1001C0001F4F7E0185E0E80EF11CF80181918F013F
:1001D0000E94AC000E151F05C1F70E94A4000F90ED
:1001E0000F900F900F90DF91CF911F910F91FF9083
:1001F000EF90089560E00E94B7008FEC97E00197C0
:10020000F1F700C00000089561E00E94B70082E4A9
:100210008A95F1F700C008958FE493EC0197F1F708
:1002200000C0000083E30E94FA0082E30E94FA000B
:1002300088E20E94FA008CE00E94FA0086E00E94A8
:10024000FA0081E00E94FA008FEC97E00197F1F745
:1002500000C00000089581E00E94FA008FEC97E052
:100260000197F1F700C000000895CF93DF93EC01F0
:100270008881882331F021960E940401899181119F
:10028000FBCFDF91CF9108952F923F924F925F92D3
:100290006F927F928F929F92AF92BF92CF92DF9296
:1002A000EF92FF920F931F93CF93DF93CDB7DEB7FB
:1002B000A8970FB6F894DEBF0FBECDBF81E091E0E6
:1002C0000E946700EE24E394F12C0F2EFBEBAF2E7F
:1002D000B12CF02D0CEB10E00F2EF4E83F2EF02D9A
:1002E0000F2EF9EBCF2ED12CF02D0F2EF5E16F2E26
:1002F000F1E07F2EF02DCE0101964C014E2C0E9494
:100300009B008E2D880FF5018083F8013082F80163
:1003100080818823E4F7F60150800E94A400852D97
:10032000887F883191F55E2C2F2CFF92EF927F927F
:100330006F929F928F920E94BB03C4010E9467003C
:100340000F900F900F900F900F900F90F7E24F16B5
:1003500019F08FE3481219C0409200012F925F926A
:1003600082E391E09F938F938E010F5F1F4F1F9346
:100370000F930E94BB03C8010E9467000F900F906B
:100380000F900F900F900F9020C09FEFE91AF90A7D
:10039000EFE7EE16F10409F0B1CF809100011F9252
:1003A0008F938DE491E09F938F938E010F5F1F4F8A
:1003B0001F930F930E94BB03C8010E9467000F9018
:1003C0000F900F900F900F900F90A8960FB6F89483
:1003D000DEBF0FBECDBFDF91CF911F910F91FF9078
:1003E000EF90DF90CF90BF90AF909F908F907F90D5
:1003F0006F905F904F903F902F9008951F920F92B3
:100400000FB60F9211248F93809107028F5F809314
:1004100007028F910F900FBE0F901F9018958823A1
:1004200011F05F9A01C05F98809306020895CF9300
:10043000DF93CDB7DEB7C054D1090FB6F894DEBF55
:100440000FBECDBF0E94530087EA91E60197F1F7F6
:1004500000C000008DE791E00E9467000E947600D6
:100460000E94950084B1876084B9579A85B1887FCE
:1004700085B95F9852985A9A81E0809369008DBB44
:1004800078940E9444018FE493EC0197F1F700C047
:1004900000000E940C010E942B0180E80E94FA00DB
:1004A00086E991E00E9435019FEF24E33CE0915002
:1004B00020403040E1F700C000000E942B010F2EC9
:1004C000FAE86F2EF2E07F2EF02D0F2EF4E65F2E6D
:1004D000F02D0F2EF8EC8F2EF02D0F2EF7EAAF2E09
:1004E000F1E0BF2EF02DCE0101967C0180E00E944C
:1004F0007D008C010B3892E0190708F08301083C5D
:10050000110508F4B3C09301201B310BA4E6B0E041
:100510000E94870322EC31E040E050E00E94650336
:10052000922EC22ED12C1F922F931F930F93BF9206
:10053000AF92FF92EF920E94BB03C7010E94670037
:1005400080E80E94FA0088EB91E00E9435014AE0C1
:10055000B701C6010E949603C7010E9435018EEBC8
:1005600091E00E9435010FB6F894DEBF0FBECDBFFB
:1005700034E1391588F0299A2A9881E00E940F0207
:1005800095B181E0892785B980EC0E94FA0083EC5F
:1005900091E00E94350146C088E2891570F12A9ADF
:1005A0009FEF24E33CE0915020403040E1F700C051
:1005B00000002A988FEF94E32CE081509040204077
:1005C000E1F700C00000299880910602882341F0DD
:1005D0003BE3391528F480E00E940F02289805C0FB
:1005E00080910602811101C0289880EC0E94FA00D7
:1005F00084ED91E00E94350115C085B18C7F85B9ED
:1006000080910602882331F08BE3891518F480E08D
:100610000E940F022A9880EC0E94FA0085EE91E079
:100620000E943501809107028A30B0F00E942B01B0
:1006300080E80E94FA0086EF91E00E9435019FEF6A
:1006400028E03DE3915020403040E1F700C0000039
:100650000E942B01109207028FEF94E32CE081504F
:1006600090402040E1F700C0000040CF1F925F9211
:100670001F928F92BF92AF92FF92EF920E94BB03A4
:10068000C7010E94670080E80E94FA0088EB91E0B1
:100690000E9435014AE0B70184E690E00E9496038B
:1006A000C7010E9435018EEB91E00E94350185B1B2
:1006B0008C7F85B9809106020FB6F894DEBF0FBE1D
:1006C000CDBF882309F4A6CFA2CFA1E21A2EAA1B80
:1006D000BB1BFD010DC0AA1FBB1FEE1FFF1FA217F2
:1006E000B307E407F50720F0A21BB30BE40BF50BEF
:1006F000661F771F881F991F1A9469F76095709578
:10070000809590959B01AC01BD01CF010895A29FFA
:10071000B001B39FC001A39F700D811D1124911DD5
:10072000B29F700D811D1124911D0895BB274A3081
:1007300031F4992322F4BDE2909581959F4F0C945A
:10074000A203BB27FB015527AA27880F991FAA1FC1
:10075000A41710F0A41B83955051B9F7A05DAA33DC
:1007600008F0A95DA193009779F7B111B1931192A7
:10077000CB010C94D405AEE0B0E0E1ECF3E00C94D6
:100780008C060D891E8986E08C831A8309838FEF7E
:100790009FE79E838D83AE01475E5F4F6F89788DA3
:1007A000CE0101960E94DD03EF81F885E00FF11F75
:1007B00010822E96E4E00C94A806ABE0B0E0E3EEE5
:1007C000F3E00C947E066C017B018A01FC01178228
:1007D0001682838181FFCCC1CE0101963C01F601D6
:1007E0009381F70193FD859193FF81917F01882388
:1007F00009F4BAC1853239F493FD859193FF819153
:100800007F01853229F4B60190E00E94E405E7CF2C
:10081000912C212C312CFFE1F315D8F08B3279F09B
:1008200038F4803279F08332A1F4232D20611DC089
:100830008D3261F0803369F4232D216016C0832D41
:100840008260382EE32DE4603E2E2AC0F32DF8603E
:100850001DC037FC2DC020ED280F2A3040F08E320D
:10086000B9F436FC81C1232D2064322E19C036FE26
:1008700006C08AE0989E200D1124922E11C0EAE055
:100880002E9E200D1124222EF32DF0623F2E08C043
:100890008C3621F4832D8068382E02C0883641F4CE
:1008A000F70193FD859193FF81917F018111B3CF72
:1008B000982F9F7D9554933028F40C5F1F4F9FE332
:1008C00099830DC0833631F0833771F0833509F099
:1008D00059C021C0F801808189830E5F1F4F882491
:1008E0008394912C530113C02801F2E04F0E511C48
:1008F000F801A080B18036FE03C0692D70E002C00F
:100900006FEF7FEFC5010E94C9054C018201F32DF5
:10091000FF773F2E16C0280122E0420E511CF8013D
:10092000A080B18036FE03C0692D70E002C06FEF79
:100930007FEFC5010E94BE054C01F32DF0683F2EEC
:10094000820133FC1BC0822D90E088169906B0F41A
:10095000B60180E290E00E94E4052A94F4CFF5010C
:1009600037FC859137FE81915F01B60190E00E94CE
:10097000E40521102A9421E0821A9108811491043F
:1009800071F7E8C0843611F0893641F5F80137FE79
:1009900007C060817181828193810C5F1F4F08C005
:1009A00060817181072E000C880B990B0E5F1F4F21
:1009B000F32DFF763F2E97FF09C090958095709597
:1009C00061957F4F8F4F9F4FF0683F2E2AE030E0B8
:1009D000A3010E942006882E861845C0853731F471
:1009E000232D2F7EB22E2AE030E025C0932D997F53
:1009F000B92E8F36C1F018F4883579F0B5C080373C
:100A000019F0883721F0B0C0E92FE061BE2EB4FEA6
:100A10000DC0FB2DF460BF2E09C034FE0AC0292F83
:100A20002660B22E06C028E030E005C020E130E0AC
:100A300002C020E132E0F801B7FE07C06081718199
:100A4000828193810C5F1F4F06C06081718180E0BD
:100A500090E00E5F1F4FA3010E942006882E86188B
:100A6000FB2DFF773F2E36FE0DC0232D2E7FA22EAD
:100A7000891458F434FE0BC032FC09C0832D8E7EDD
:100A8000A82E05C0B82CA32C03C0B82C01C0B92CCB
:100A9000A4FE0FC0FE01E80DF11D8081803321F41A
:100AA0009A2D997EA92E09C0A2FE06C0B394B394D4
:100AB00004C08A2D867809F0B394A3FC11C0A0FE6F
:100AC00006C0B21488F4280C922C9B180EC0B214E5
:100AD00060F4B60180E290E00E94E405B394F7CFA1
:100AE000B21418F42B1802C0982C212CA4FE10C0AC
:100AF000B60180E390E00E94E405A2FE17C0A1FCCD
:100B000003C088E790E002C088E590E0B6010CC021
:100B10008A2D867859F0A1FE02C08BE201C080E2E6
:100B2000A7FC8DE2B60190E00E94E405891438F438
:100B3000B60180E390E00E94E4059A94F7CF8A948E
:100B4000F301E80DF11D8081B60190E00E94E405FB
:100B50008110F5CF222009F442CEB60180E290E068
:100B60000E94E4052A94F6CFF6018681978102C09F
:100B70008FEF9FEF2B96E2E10C949A06FC01059013
:100B8000615070400110D8F7809590958E0F9F1F8F
:100B90000895FC016150704001900110D8F78095D4
:100BA00090958E0F9F1F0895DC01FC01672F7191B6
:100BB0007723E1F7329704C07C916D937083629143
:100BC000AE17BF07C8F308950F931F93CF93DF931A
:100BD000FB01238121FD03C08FEF9FEF2CC022FF7B
:100BE00016C046815781248135814217530744F44A
:100BF000A081B1819D012F5F3F4F318320838C9372
:100C0000268137812F5F3F4F3783268314C08B01A6
:100C1000EC01FB010084F185E02D0995892BE1F6BB
:100C2000D80116968D919C911797019617969C93D3
:100C30008E931697CE01DF91CF911F910F9108955A
:100C4000FA01AA27283051F1203181F1E8946F93FD
:100C50006E7F6E5F7F4F8F4F9F4FAF4FB1E03ED0A3
:100C6000B4E03CD0670F781F891F9A1FA11D680F41
:100C7000791F8A1F911DA11D6A0F711D811D911D74
:100C8000A11D20D009F468943F912AE0269F1124E9
:100C90003019305D3193DEF6CF010895462F47704D
:100CA000405D4193B3E00FD0C9F7F6CF462F4F70A8
:100CB000405D4A3318F0495D31FD4052419302D006
:100CC000A9F7EACFB4E0A6959795879577956795AC
:100CD000BA95C9F700976105710508959B01AC01AC
:100CE0000A2E06945795479537952795BA95C9F7D3
:100CF000620F731F841F951FA01D08952F923F92AE
:100D00004F925F926F927F928F929F92AF92BF921B
:100D1000CF92DF92EF92FF920F931F93CF93DF93C7
:100D2000CDB7DEB7CA1BDB0B0FB6F894DEBF0FBE24
:100D3000CDBF09942A88398848885F846E847D8471
:100D40008C849B84AA84B984C884DF80EE80FD8073
:100D50000C811B81AA81B981CE0FD11D0FB6F894E9
:0E0D6000DEBF0FBECDBFED010895F894FFCFAA
:100D6E0027493243207363616E2073746172742E4F
:100D7E002E2E0D0A00466F756E6420493243206494
:100D8E006576696365206174203078253032580DA0
:100D9E000A005573696E67204C4344206164647287
:100DAE00657373203078253032580D0A0053636115
:100DBE006E20646F6E652E205573696E67204C43EE
:100DCE004420616464726573732030782530325824
:100DDE00202864656661756C74290D0A00536D6177
:100DEE00727420506C616E7420426F6F74696E67FE
:100DFE002E2E2E0D0A00536D61727420506C616E92
:100E0E007420496E697400536F696C3D25752028F6
:100E1E0025752525290D0A00536F696C3A0025208A
:100E2E0020200057415445522054484520504C41F3
:100E3E004E5420004D6F697374757265206973206E
:100E4E006C6F7720004D6F697374757265204F4B10
:100E5E0020202020200057696E6420617661696C25
:060E6E0061626C652000CA
:00000001FF
